:020000040800F2
:10000000900700208901000839140008A10F00089A
:10001000391300088F020008CB160008000000000A
:100020000000000000000000000000003D14000877
:1000300091020008000000003B1400083F14000873
:10004000A3010008A3010008A3010008A301000800
:10005000A3010008A3010008A3010008A3010008F0
:10006000A3010008A3010008A3010008A3010008E0
:10007000A3010008A3010008A3010008A3010008D0
:10008000A3010008A3010008A3010008A3010008C0
:10009000A3010008A3010008A3010008A3010008B0
:1000A000A3010008A3010008A3010008A3010008A0
:1000B000A3010008A3010008A3010008A301000890
:1000C000A3010008A3010008A3010008A301000880
:1000D000A3010008A3010008A3010008A301000870
:1000E000A3010008A3010008A301000800F002F822
:1000F00000F03AF80AA090E8000C82448344AAF188
:100100000107DA4501D100F02FF8AFF2090EBAE885
:100110000F0013F0010F18BFFB1A43F0010318473B
:10012000B0160000D0160000103A24BF78C878C17D
:10013000FAD8520724BF30C830C144BF04680C60ED
:10014000704700000023002400250026103A28BF35
:1001500078C1FBD8520728BF30C148BF0B60704739
:100160001FB51FBD10B510BD00F058F81146FFF7C0
:10017000F7FF01F0BBFA00F076F803B4FFF7F2FFE7
:1001800003BC00F07DF8000009488047094800479B
:10019000FEE7FEE7FEE7FEE7FEE7FEE7FEE7FEE737
:1001A000FEE7FEE704480549054A064B7047000094
:1001B00093140008ED000008900100209007002033
:1001C00090030020900300204FF0000200B513467A
:1001D00094469646203922BFA0E80C50A0E80C5067
:1001E000B1F12001BFF4F7AF090728BFA0E80C5018
:1001F00048BF0CC05DF804EB890028BF40F8042B11
:1002000008BF704748BF20F8022B11F0804F18BF7D
:1002100000F8012B7047704770477047754600F033
:100220002BF8AE4605006946534620F00700854688
:1002300018B020B5FFF7B6FFBDE820404FF000062C
:100240004FF000074FF000084FF0000B21F00701BE
:10025000AC46ACE8C009ACE8C009ACE8C009ACE801
:10026000C0098D46704710B50446AFF300802046A4
:10027000BDE81040FFF781BF004870473001002003
:1002800001491820ABBEFEE7260002007047FEE7DA
:100290007047884200DA0846904200DA10469842D9
:1002A00000DA18467047884200DD0846904200DDBB
:1002B0001046984200DD18467047000070B50446AD
:1002C00000F0FEF80546601C02D0044800780444A3
:1002D00000F0F6F8401BA042FAD370BD00000020E9
:1002E0002DE9F84FDFF8B8910024A9F1040B23465B
:1002F0000F2709F1040AABF1040EC9E00125A5405E
:100300002A40AA427DD1674ED1F804C0ACEB060862
:10031000B44532D014DCBCF1030F3AD009DCBCF197
:10032000000F2AD0BCF1010F1CD0BCF1020F31D15B
:100330001DE0BCF1110F17D0BCF1120F2AD119E04A
:10034000B8F5881F19D006DCB8F5803F15D0B8F590
:10035000801F1FD111E0B8F5001F0ED0B8F5041FA3
:1003600018D10AE0CB6815E0CB681B1D12E0CB6802
:1003700008330FE0CB680C330CE08B682BB1012BFA
:100380004FF0080303D0456104E0042302E0056157
:1003900000E00023FF2A01D8064601E000F1040630
:1003A0004FEA840501D9A5F12005D6F8008007FAA7
:1003B00005FC28EA0C0803FA05F548EA0508C6F822
:1003C00000804D68ED0062D5374DAE6946F00106FC
:1003D000AE61AD6924F0030605F001050095334DCB
:1003E00006EB050CDCF80850A607360F07FA06F8EE
:1003F00025EA0805DFF8B880404503D14FF0000832
:1004000017E044E0DFF8AC80404502D14FF001082E
:100410000FE0DFF8A480404502D14FF0020808E069
:10042000DFF89880404502D14FF0030801E04FF01B
:10043000040808FA06F848EA0508CCF808804D6870
:10044000D9F80060ED024D4601D5164300E0964311
:100450002E604D68DAF80060AD02554601D51643AE
:1004600000E096432E604D68DBF80060AD035D460A
:1004700001D5164300E096432E604D68DEF800601B
:10048000ED03754601D5164300E096432E60641CCB
:100490000D682A46E5407FF431AFBDE8F88F0000D3
:1004A000080401400000111000100240000001404B
:1004B00000080140000C0140001001400014014000
:1004C00001488068704700000000002002488168F1
:1004D000027811448160704700000020074810B581
:1004E000016841F010010160032000F067F80F205F
:1004F00000F006F800F024F8002010BD00200240B3
:1005000070B50D4D04464FF47A712878B1FBF0F0C8
:100510000A490968B1FBF0F000F0AEFA48B9102CB6
:1005200007D200222146501E00F028F800206C60FF
:1005300070BD012070BD0000000000200C000020F4
:100540000C4808B5816941F001018161816901F0C0
:1005500001010091C16941F08051C161C06900F0A1
:10056000805000900448416821F0E06141F0007142
:10057000416008BD0010024000000140F0B40E4B85
:100580001B680C46C3F30223C3F10705042D00D9F1
:100590000425191D072901D2002300E0DB1E0126D6
:1005A00006FA05F1491E214099409E40761E1640EC
:1005B0003143F0BC01F08AB80CED00E0064900F0D0
:1005C000070208684FF6FF03184040EA0220034A7A
:1005D00010430860704700000CED00E00000FA05D1
:1005E0002DE9F0470F46050061D0434E306800F01A
:1005F0000700B84209D2306820F007003843306065
:10060000306800F00700B84251D128683B4C8107A0
:1006100012D5400703D5606840F4E0606060287838
:10062000000703D5606840F4605060606068A968A6
:1006300020F0F000084360602878C00728D0686880
:10064000012810D02168022810D0890700292EDA4D
:10065000616821F0030101436160FFF731FF8046CB
:1006600041F288390DE021688903EFE78901EDE760
:10067000FFF726FFA0EB0801494502D90320BDE89A
:10068000F0876068696800F00C00B0EB810FEFD173
:10069000306800F00700B8420BD9306820F007003E
:1006A00038433060306800F00700B84201D00120C4
:1006B000E5E72878400705D56068E96820F4E06040
:1006C000084360602878000706D56068296920F42F
:1006D000605040EAC100606000F018F86168084AA4
:1006E000C1F30311515CC840064908600648006820
:1006F000FFF706FF0020C2E7002002400010024082
:10070000BE1700080C000020040000200E4A5168AB
:100710000E4801F00C03042B11D0082B0FD10C480C
:10072000C1F38343C903C05C0AD55168084AC1F3C9
:100730004041921E515C054A5043B0FBF1F07047B6
:1007400004494843704700000010024000127A003C
:10075000AE17000800093D002DE9F84F040070D0E5
:100760002078C04DC00749D06868C0F381000128D7
:1007700007D06868C0F38100022809D16868C00307
:1007800006D52868800339D560680028E7D035E0B1
:100790006068B0F5803F0BD010B1B0F5A02F11D03C
:1007A000286820F480302860286820F4802002E047
:1007B000286840F480302860606890B1FFF780FEC0
:1007C00006460AE0286840F480202860F0E700BF71
:1007D000FFF776FE801B642873D828688003F7D55E
:1007E0000CE0FFF76DFE064605E000BFFFF768FE70
:1007F000801B6428F0D828688003F7D420789A4EAC
:1008000080074FF001094FF0000839D5686810F0F3
:100810000C0F07D06868C0F38100022809D168680E
:10082000C00306D42868800714D52069012808D1A0
:1008300010E02069B0B1C6F80090FFF741FE07460E
:1008400005E00AE1FFF73CFEC01B0228C4D8286877
:100850008007F7D52868616920F0F80040EAC100F8
:1008600028600DE0C6F80080FFF72AFE074604E086
:10087000FFF726FEC01B022823D828688007F7D47C
:10088000207800072CD57948A169D9B1C0F800902B
:10089000FFF716FE074604E0FFF712FEC01B022812
:1008A0000FD8686A8007F7D571484FF4FA5100688D
:1008B000B0FBF1F0009000BF0098411E0091FAD209
:1008C0000EE080E0C0F80080FFF7FAFD074604E084
:1008D000FFF7F6FDC01B022875D8686A8007F7D4B9
:1008E0002078400760D5E8690027C00008D4E8698F
:1008F00040F08050E861E869012700F080500090E6
:100900005C480168C90513D40168834641F48071CD
:100910000160FFF7D5FD824606E000BFFFF7D0FD7E
:10092000A0EB0A0064284ED8DBF80000C005F5D51E
:10093000E06801280AD008B1052813D0286A20F001
:1009400001002862286A20F0040002E0286A40F0D2
:1009500001002862E06841F2883B98B1FFF7B0FDE2
:1009600082460BE0286A40F004002862EEE700BFF0
:10097000FFF7A6FDA0EB0A0159455AD8286A80075F
:10098000F6D50CE0FFF79CFD824605E0FFF798FDE9
:10099000A0EB0A0159454CD8286A8007F6D41FB14C
:1009A000E86920F08050E861E06988B36968C1F3C4
:1009B0008101022944D00228C6F8608004D0FFF7E4
:1009C0007FFD044638E034E0FFF77AFD074604E097
:1009D000FFF776FDC01B02282BD828688001F7D4CA
:1009E000206AB0F5803F05D16868A16820F4003026
:1009F00008436860D4E908010843696821F4741168
:100A000008436860C6F86090FFF75AFD044606E0A8
:100A100025E000BFFFF754FD001B022809D8286815
:100A20008001F7D51BE000BFFFF74AFD001B02283D
:100A300002D90320BDE8F88F28688001F4D40EE0C5
:100A40000128F7D06868226A00F48031914204D10D
:100A5000616A00F47010884201D00120EAE70020AA
:100A6000E8E70000001002400000424280044242D9
:100A70000C0000200070004010B5401EB0F1807FD7
:100A800001D3012010BD4FF0E02460610F216017F9
:100A900000F01CFE0020A06107202061002010BD96
:100AA00010B590F83C20012A22D0012280F83C2089
:100AB000CA688C6822F4407222434C6822F4806237
:100AC00022430C6822F4006222430C6922F4805213
:100AD00022434C6922F400522243C969002322F4C4
:100AE00080420A4301684A6480F83C30002010BD0F
:100AF000022010BD70B590F83C20012A26D00124B8
:100B000080F83C40022280F83D2003685A689D68C6
:100B100022F070060A6832435A600D4B02689A420E
:100B200008D0B2F1804F05D00A4B9A4202D00A4B4E
:100B30009A4204D1496825F080031943916080F8F6
:100B40003D40002180F83C10084670BD022070BD79
:100B5000002C0140000400400008004010B50400D3
:100B600003D094F83D0010B107E0012010BD002033
:100B700084F83C00204600F01FF8022084F83D0075
:100B8000211D206800F086FC012084F8460084F8CE
:100B90003E0084F83F0084F8400084F8410084F867
:100BA000420084F8430084F8440084F8450084F847
:100BB0003D00002010BD000008B5174A0168174825
:100BC000914207D1816941F400618161806900F43B
:100BD000006014E0B1F1804F0AD0114A914210D167
:100BE000C16941F00201C161C06900F0020006E084
:100BF000C16941F00101C161C06900F001000090CC
:100C000008BD084A9142FBD1C16941F00401C161AC
:100C1000C06900F00400F2E7002C0140001002401F
:100C2000000400400008004070B5044690F83C0005
:100C30000025012817D0012684F83C60022084F8A2
:100C40003D002068826822F0770222F47F428260B1
:100C50000868502838D00DDC20284FD005DC90B330
:100C6000102811D14AE0022070BD302846D040281B
:100C70000AD13BE060282FD070280DD0B0F5805FFE
:100C800003D0B0F5005F12D0012584F83D6000204C
:100C900084F83C00284670BDCB68D1E9012120686A
:100CA00000F03BFC2068816841F0770109E0CB68E7
:100CB000D1E90121206800F030FC2068816841F40E
:100CC00080418160E1E719E0CA684968206800F066
:100CD000D9FC5021206806E0CA684968206800F005
:100CE000E2FC6021206800F022FCCEE7CA68496877
:100CF000206800F0C7FC40212068F4E72268014624
:100D00001046F0E730B585B00021009101910291C5
:100D1000039100682B4B2C4902242C4A98420AD19B
:100D2000886940F004008861886900F0040004903C
:100D30004FF4706029E0B0F1804F1DD0244B254D59
:100D400098422BD1886940F004008861886900F0DE
:100D500004000490886940F0080088618869694649
:100D600000F008000490C020CDE900041046039470
:100D7000FFF7B6FA03201EE0886940F0040088619E
:100D8000886900F0040004900F20CDE90004694652
:100D900010460394FFF7A4FA05B030BD0E4A904206
:100DA000FAD1886940F008008861886900F008007D
:100DB00004904FF47070CDE900046946284603940E
:100DC000E8E70000002C014000100240000801404C
:100DD00000040040000C01400008004070B50446CB
:100DE00090F83C0000260D4601280FD0012084F821
:100DF0003C006AB1042A1DD0082A2FD00C2A3FD00B
:100E00000126002084F83C00304670BD022070BDF1
:100E1000206800F095FB2068816941F0080181613C
:100E20002068816921F004018161206881692A6953
:100E3000114311E0206800F0ABFB2068816941F4A8
:100E4000006181612068816921F48061816120688D
:100E500081692A6941EA02218161D2E7206800F0B4
:100E6000C3FB2068C16941F00801C1612068C16904
:100E700021F00401C1612068C1692A69114311E0B0
:100E8000206800F0DDFB2068C16941F40061C161A8
:100E90002068C16921F48061C1612068C1692A6943
:100EA00041EA0221C161ACE710B5040003D094F817
:100EB0003D0010B107E0012010BD002084F83C0087
:100EC000204600F01EF8022084F83D00211D206815
:100ED00000F0E0FA012084F8460084F83E0084F82F
:100EE0003F0084F8400084F8410084F8420084F810
:100EF000430084F8440084F8450084F83D00002055
:100F000010BD704710B50446022249B104290ED025
:100F1000082913D094F84100012816D0012010BDF3
:100F200094F83E000128F9D184F83E200FE094F8AF
:100F30003F000128F2D184F83F2008E094F84000F7
:100F40000128EBD184F8402001E084F841200122FF
:100F5000206800F0D5FA0F492068884203D1426C1E
:100F600042F4004242642068884208D0B0F1804FC9
:100F700005D00949884202D00849884204D18168D5
:100F800001F00701062903D0016841F00101016069
:100F9000002010BD002C014000040040000800406B
:100FA000FEE708B54FF4FA60FFF788F901200090DA
:100FB0004E234D224B214F2000F0C0F90220782310
:100FC0000090762219467D2000F0B8F903205A23BC
:100FD0005D2100901A46084600F0B0F9BDE80840CF
:100FE0004FF47A70FFF76AB910B596B000240F94E9
:100FF00010941194129413941C2168461494FFF7D2
:10100000E3F8202107A8FFF7DFF8344832490160F0
:101010009F21C0E9011440F2E731C0E903144461A3
:101020008461FFF79BFD08B172B6FEE74FF4805074
:101030000F900FA92948FFF7F7FD08B172B6FEE738
:101040002648FFF731FF08B172B6FEE7139413A9E3
:1010500022481494FFF74EFD08B172B6FEE76020F7
:10106000CDE9000402940394049405940022694697
:101070001A480694FFF7B2FE08B172B6FEE70422E2
:1010800069461648FFF7AAFE08B172B6FEE70822C5
:1010900069461248FFF7A2FE08B172B6FEE70C22BD
:1010A00069460E48FFF79AFE08B172B6FEE707944C
:1010B000089409944FF400500A94CDE90B4007A915
:1010C00006480E94FFF7ECFC08B172B6FEE7034841
:1010D000FFF718FE16B010BD002C014010000020D4
:1010E00010B58EB000240794089409940A940B94C8
:1010F0001C2168460C94FFF767F82A484FF080419E
:1011000001609F21C0E9011440F2E731C0E90314F6
:101110008461FFF723FD08B172B6FEE74FF48050FB
:10112000079007A91F48FFF77FFD08B172B6FEE7D9
:101130001C48FFF7B9FE08B172B6FEE70B940BA985
:1011400018480C94FFF7D6FC08B172B6FEE7602091
:10115000CDE9000402940022694612480494FFF786
:101160003DFE08B172B6FEE7042269460D48FFF75E
:1011700035FE08B172B6FEE7082269460948FFF756
:101180002DFE08B172B6FEE70C2269460548FFF74E
:1011900025FE08B172B6FEE70248FFF7B3FD0EB0B8
:1011A00010BD00005800002010B58EB00024079438
:1011B000089409940A940B941C2168460C94FFF738
:1011C00003F82A48284901609F21C0E9011440F230
:1011D000E731C0E903148461FFF7C0FC08B172B6BF
:1011E000FEE74FF48050079007A92048FFF71CFD49
:1011F00008B172B6FEE71D48FFF756FE08B172B699
:10120000FEE70B940BA919480C94FFF773FC08B187
:1012100072B6FEE76020CDE9000402940022694620
:1012200012480494FFF7DAFD08B172B6FEE7042213
:1012300069460E48FFF7D2FD08B172B6FEE70822F4
:1012400069460A48FFF7CAFD08B172B6FEE70C22EC
:1012500069460648FFF7C2FD08B172B6FEE70348CB
:10126000FFF750FD0EB010BD00040040A0000020AC
:1012700010B58EB000240794089409940A940B9436
:101280001C2168460C94FEF79FFF2A4828490160FC
:101290009F21C0E9011440F2E731C0E903148461E1
:1012A000FFF75CFC08B172B6FEE74FF48050079080
:1012B00007A92048FFF7B8FC08B172B6FEE71D4841
:1012C000FFF7F2FD08B172B6FEE70B940BA91948BF
:1012D0000C94FFF70FFC08B172B6FEE76020CDE971
:1012E000000402940022694612480494FFF776FD38
:1012F00008B172B6FEE7042269460E48FFF76EFD9C
:1013000008B172B6FEE7082269460A48FFF766FD93
:1013100008B172B6FEE70C2269460648FFF75EFD8B
:1013200008B172B6FEE70348FFF7ECFC0EB010BD43
:1013300000080040E8000020FEE700002DE9F05F13
:101340001E461746884681460A9CFEF7A2FF0546C0
:1013500033463A4641464846FEF7A5FF3548012C3C
:1013600000F14801A0F1480207D0022C25D0032C3F
:1013700021D12D248B46924658E032248A4693464A
:1013800017E0A74202DB2B4800684463A14502DB5B
:10139000DAF800000464A64202DBDAF800004463D5
:1013A000A04502DBDBF8000004640A20FEF786FF9C
:1013B000641CAC42E5DDBDE8F09F462482469346BE
:1013C00018E0A74202DBDAF800008463A14502DBE3
:1013D000DAF800000464A64203DB164848300068CF
:1013E0008463A04502DBDBF80000C4630A20FEF73B
:1013F00065FF641CAC42E4DDDDE7A74202DB0D487B
:101400000068C463A14503DB0A4890380068446360
:10141000A64202DBDBF80000C463A04502DBDAF879
:10142000000084630A20FEF749FF641CAC42E4DD3F
:10143000C1E70000A0000020FEE770477047FFF7FB
:1014400045B810B590B028216846FEF7BDFE1421BE
:101450000AA8FEF7B9FE0220009001200490102097
:101460000024059007946846FFF776F908B172B634
:10147000FEE70F20CDE90A040C940D9400210AA880
:101480000E94FFF7ADF8002801D072B6FEE710B059
:1014900010BD7047F0B50268164B174C174D4FF052
:1014A0008047984205D0B84203D0A04201D0A8425C
:1014B00003D122F070064A683243984205D0B84200
:1014C00003D0A04201D0A84203D122F44074CA68DC
:1014D00022434C6922F08002224302608A68C26281
:1014E0000A688262984201D1096901630121416160
:1014F000F0BD0000002C0140000400400008004046
:1015000010B501F01F030121046A99408C43046265
:10151000016A9A401143016210BD10B5846842EA25
:10152000032224F47F440A432243826010BD826870
:1015300022F070020A4342F0070181607047000008
:1015400030B5036A026A22F00102026242688469CD
:1015500024F073050C682C4323F002058B682B43A1
:101560000A4DA8420BD123F00805CB6822F4407243
:101570002B434D6923F0040315438A692A434260D3
:10158000846149684163036230BD0000002C014062
:1015900030B5026A036A23F010030362436884696A
:1015A0000D6824F4E64444EA05248D6822F0200204
:1015B00042EA05120B4DA8420ED1CD6822F08002FE
:1015C00042EA05124D6923F4406343EA85038D69BD
:1015D00022F0400243EA85034360846149688163E5
:1015E000026230BD002C014030B5036A026A22F469
:1015F000807202624268C46923F4007324F07305A8
:101600000C682C438D6843EA05230C4DA8420ED18B
:10161000CD6823F4006343EA05234D6922F4405268
:1016200042EA05128D6923F4806342EA05124260A2
:10163000C4614968C163036230BD0000002C0140F1
:1016400030B5046A026A22F4805202624268C369B9
:101650000D6823F4E64343EA05238D6824F400541F
:1016600044EA0534064DA84204D14D6922F4804273
:1016700042EA85124260C36149680164046230BD78
:10168000002C014010B5036A046A24F001040462CE
:10169000846924F0F00444EA021423F00A020A43A5
:1016A0008461026210BD10B5036A046A24F010045C
:1016B0000462846923F0A00324F4704444EA0232F3
:1016C00043EA01118261016210BDFEE70907090EBC
:1016D000002804DB00F1E02080F80014704700F0DF
:1016E0000F0000F1E02080F8141D704708B5FEF7E8
:1016F000F5FEFFF7A6FE2B48816941F004018161E8
:10170000816901F004010091816941F00801816162
:10171000806900F008000090FFF766FCFFF7E0FC2E
:10172000FFF742FDFFF7A4FD00211F48FFF7EAFB8A
:101730001D480C219030FFF7E5FB1B480C21D830E9
:10174000FFF7E0FB184804214830FFF7DBFB1648A1
:1017500008214830FFF7D6FB13480C214830FFF72B
:10176000D1FB114800219030FFF7CCFB0E4804213B
:101770009030FFF7C7FB0C4808219030FFF7C2FB01
:1017800009480021D830FFF7BDFB07480421D830B5
:10179000FFF7B8FB04480821D830FFF7B3FBFFF789
:1017A00000FCFEE7001002401000002001020203CE
:1017B0000405060708090A0B0C0D0E0F1010000097
:1017C00000000000000001020304060708090000F1
:1017D000F017000800000020100000002801000899
:1017E00000180008100000208007000044010008D5
:1017F0000100000010000000000000000024F400C0
:04000005080000ED02
:00000001FF
