:020000040800F2
:10000000E007002089010008751D00083D18000860
:10001000911B0008F30200084320000800000000C4
:10002000000000000000000000000000791D000832
:10003000F502000800000000771D0008B71D000849
:10004000A3010008A3010008A3010008A301000800
:10005000A3010008A3010008A3010008A3010008F0
:10006000A3010008A3010008A3010008A3010008E0
:10007000A3010008A3010008A3010008A3010008D0
:10008000A3010008A3010008A3010008A3010008C0
:10009000A3010008A3010008A3010008A3010008B0
:1000A000A3010008A3010008A3010008A3010008A0
:1000B000A3010008A3010008A3010008A301000890
:1000C000A3010008A3010008A3010008A301000880
:1000D000A3010008A3010008A3010008A301000870
:1000E000A3010008A3010008A301000800F002F822
:1000F00000F03AF80AA090E8000C82448344AAF188
:100100000107DA4501D100F02FF8AFF2090EBAE885
:100110000F0013F0010F18BFFB1A43F0010318473B
:100120004020000060200000103A24BF78C878C149
:10013000FAD8520724BF30C830C144BF04680C60ED
:10014000704700000023002400250026103A28BF35
:1001500078C1FBD8520728BF30C148BF0B60704739
:100160001FB51FBD10B510BD00F08AF81146FFF78E
:10017000F7FF01F077FF00F0A8F803B4FFF7F2FFF4
:1001800003BC00F0AFF80000094880470948004769
:10019000FEE7FEE7FEE7FEE7FEE7FEE7FEE7FEE737
:1001A000FEE7FEE704480549054A064B7047000094
:1001B0000B1E0008ED000008E0010020E007002011
:1001C000E0030020E003002010B5203AC0F00B80CF
:1001D000B1E81850203AA0E81850B1E81850A0E84B
:1001E0001850BFF4F5AF5FEA027C24BFB1E81850A5
:1001F000A0E8185044BF18C918C0BDE810405FEA15
:10020000827C24BF51F8043B40F8043B08BF704790
:10021000D20728BF31F8023B48BF11F8012B28BF95
:1002200020F8023B48BF00F8012B70474FF0000256
:1002300000B5134694469646203922BFA0E80C50DC
:10024000A0E80C50B1F12001BFF4F7AF090728BFB7
:10025000A0E80C5048BF0CC05DF804EB890028BF33
:1002600040F8042B08BF704748BF20F8022B11F05C
:10027000804F18BF00F8012B7047704770477047D8
:10028000754600F02BF8AE4605006946534620F04F
:100290000700854618B020B5FFF784FFBDE8204071
:1002A0004FF000064FF000074FF000084FF0000B32
:1002B00021F00701AC46ACE8C009ACE8C009ACE8E5
:1002C000C009ACE8C0098D46704710B50446AFF3CD
:1002D00000802046BDE81040FFF74FBF0048704740
:1002E0008001002001491820ABBEFEE72600020075
:1002F0007047FEE77047884200DA0846904200DA0D
:100300001046984200DA18467047884200DD0846D9
:10031000904200DD1046984200DD1846704700000C
:100320002DE9F04FA5B03D22FE4912A8FFF74CFF82
:10033000FC4C14F83D0F8DF8850060788DF8860030
:10034000A0788DF88700E0788DF8880020798DF806
:10035000890060798DF88A00A0798DF88B00E079AA
:100360008DF88C00207A8DF88D00607A8DF88E00E3
:100370004FF0040902266121CDF83890CDE90F61D4
:10038000382216A968461196FFF71EFF12AD95E8B0
:100390000F0001F0FFFB3D22E24912A8FFF714FF16
:1003A00020788DF8850060788DF88600A0788DF82B
:1003B0008700E0788DF8880020798DF889006079D1
:1003C0008DF88A00A0798DF88B00E0798DF88C008B
:1003D000207A8DF88D00607A8DF88E0003274420F6
:1003E000CDF83890CDE90F70382216A968461197DC
:1003F000FFF7EAFE95E80F0001F0CCFBC9493D226A
:10040000483912A8FFF7E0FEC64D483D15F83D0FEC
:100410008DF8850068788DF88600A8788DF88700BB
:10042000E8788DF8880028798DF8890068798DF84A
:100430008A00A8798DF88B00E8798DF88C00287AED
:100440008DF88D00687A8DF88E005A200E97CDE9D0
:100450000F60382216A968461196FFF7B5FE0DF118
:10046000480898E80F0001F095FBAE493D22483955
:1004700012A8FFF7A9FE28788DF8850068788DF816
:100480008600A8788DF88700E8788DF888002879AC
:100490008DF8890068798DF88A00A8798DF88B002D
:1004A000E8798DF88C00287A8DF88D00687A8DF8BF
:1004B0008E004FF001085D210E97CDE90F813822A3
:1004C00016A96846CDF84480FFF77EFE0DF1480A74
:1004D0009AE80F0001F05EFB92493D22483912A8CC
:1004E000FFF772FE28788DF8850068788DF8860011
:1004F000A8788DF88700E8788DF8880028798DF83D
:10050000890068798DF88A00A8798DF88B00E879E0
:100510008DF88C00287A8DF88D00687A8DF88E0021
:1005200078200E97CDE90F60382216A968461196FB
:10053000FFF74AFE9AE80F0001F02CFB3D227949B3
:1005400012A8FFF741FE20788DF8850060788DF8BD
:100550008600A0788DF88700E0788DF888002079F3
:100560008DF8890060798DF88A00A0798DF88B006C
:10057000E0798DF88C00207A8DF88D00607A8DF806
:100580008E004FF0760BCDE90E96CDE910B63822ED
:1005900016A96846FFF718FE9AE80F0001F0FAFA6C
:1005A0003D22604912A8FFF70FFE20788DF88500E4
:1005B00060788DF88600A0788DF88700E0788DF857
:1005C000880020798DF8890060798DF88A00A079FB
:1005D0008DF88B00E0798DF88C00207A8DF88D00F5
:1005E000607A8DF88E004FF0590ACDE90E97CDE96B
:1005F00010A7382216A96846FFF7E6FD12AC94E86A
:100600000F0001F0C7FA47493D22483912A8FFF709
:10061000DBFD28788DF8850068788DF88600A8784D
:100620008DF88700E8788DF8880028798DF88900A2
:1006300068798DF88A00A8798DF88B00E8798DF8B3
:100640008C00287A8DF88D00687A8DF88E004E2106
:100650000E97CDE90F81382216A96846CDF844805F
:10066000FFF7B2FD94E80F0001F094FA4FF4FA702E
:1006700000F07AFA2B493D22D83912A8FFF7A4FDE1
:10068000284CD83C14F83D0F8DF8850060788DF823
:100690008600A0788DF88700E0788DF888002079B2
:1006A0008DF8890060798DF88A00A0798DF88B002B
:1006B000E0798DF88C00207A8DF88D00607A8DF8C5
:1006C0008E006821CDF83880CDE90F61382216A957
:1006D00068461196FFF778FD12AD95E80F0001F01E
:1006E00059FA10493D22D83912A8FFF76DFD20783C
:1006F0008DF8850060788DF88600A0788DF88700E9
:10070000E0788DF8880020798DF8890060798DF87F
:100710008A00A0798DF88B00E0798DF88C00207A22
:1007200002E00000380100208DF88D00607A8DF81D
:100730008E000FAB44214046CDF8388083E883001B
:10074000382216A96846FFF73FFD95E80F0001F033
:1007500021FA3D22FE4912A8FFF736FDFC4D15F89F
:100760003D0F8DF8850068788DF88600A8788DF8A3
:100770008700E8788DF8880028798DF889006879F5
:100780008DF88A00A8798DF88B00E8798DF88C00B7
:10079000287A8DF88D00687A8DF88E005420CDE986
:1007A0001006CDE90E67382216A96846FFF70CFD42
:1007B0000DF1480C9CE80F0001F0ECF93D22E449F2
:1007C00012A8FFF701FD28788DF8850068788DF86C
:1007D0008600A8788DF88700E8788DF88800287959
:1007E0008DF8890068798DF88A00A8798DF88B00DA
:1007F000E8798DF88C00287A8DF88D00687A8DF86C
:100800008E003C22CDE91028CDE90E69382216A9C8
:100810006846FFF7D9FC0DF1480C9CE80F0001F089
:10082000B9F93D22CA4912A8FFF7CEFC28788DF805
:10083000850068788DF88600A8788DF88700E878BC
:100840008DF8880028798DF8890068798DF88A00FC
:10085000A8798DF88B00E8798DF88C00287A8DF8CE
:100860008D00687A8DF88E007220CDE91006CDE9F2
:100870000E67382216A96846FFF7A6FC0DF1480C52
:100880009CE80F0001F086F9B1493D22483912A8D1
:10089000FFF79AFC20788DF8850060788DF8860047
:1008A000A0788DF88700E0788DF8880020798DF8A1
:1008B000890060798DF88A00A0798DF88B00E07945
:1008C0008DF88C00207A8DF88D00607A8DF88E007E
:1008D0007D21CDF83880CDE90F61382216A9684610
:1008E0001196FFF771FC0DF1480C9CE80F0001F028
:1008F00051F997493D22483912A8FFF765FC207845
:100900008DF8850060788DF88600A0788DF88700D6
:10091000E0788DF8880020798DF8890060798DF86D
:100920008A00A0798DF88B00E0798DF88C00207A10
:100930008DF88D00607A8DF88E00CDF83880119793
:10094000CDE90F8A382216A96846FFF73DFC12ACA4
:1009500094E80F0001F01EF97D493D22903112A864
:10096000FFF732FC7A4C903414F83D0F8DF8850077
:1009700060788DF88600A0788DF88700E0788DF893
:10098000880020798DF8890060798DF88A00A07937
:100990008DF88B00E0798DF88C00207A8DF88D0031
:1009A000607A8DF88E006E21CDF83890CDE90F6118
:1009B000382216A968461196FFF706FC0DF1480C7F
:1009C0009CE80F0001F0E6F861493D22903112A841
:1009D000FFF7FAFB20788DF8850060788DF88600A7
:1009E000A0788DF88700E0788DF8880020798DF860
:1009F000890060798DF88A00A0798DF88B00E07904
:100A00008DF88C00207A8DF88D00607A8DF88E003C
:100A10005521CDF83890CDE90F71382216A96846D6
:100A20001197FFF7D1FB0DF1480C9CE80F0001F086
:100A3000B1F83D22464912A8FFF7C6FB28788DF889
:100A4000850068788DF88600A8788DF88700E878AA
:100A50008DF8880028798DF8890068798DF88A00EA
:100A6000A8798DF88B00E8798DF88C00287A8DF8BC
:100A70008D00687A8DF88E004F22CDE91028CDE9DF
:100A80000E69382216A96846FFF79EFB12AD95E85D
:100A90000F0001F07FF82E493D22903112A8FFF798
:100AA00093FB20788DF8850060788DF88600A0781B
:100AB0008DF88700E0788DF8880020798DF889001E
:100AC00060798DF88A00A0798DF88B00E0798DF837
:100AD0008C00207A8DF88D00607A8DF88E00CDE93B
:100AE0000E96CDE910B6382216A96846FFF76CFBC2
:100AF00095E80F0001F04EF815493D22903112A8FB
:100B0000FFF762FB20788DF8850060788DF886000D
:100B1000A0788DF88700E0788DF8880020798DF82E
:100B2000890060798DF88A00A0798DF88B00E079D2
:100B30008DF88C00207A8DF88D00607A8DF88E000B
:100B4000CDE90E97CDE910A7382216A9684601E035
:100B5000A8000020FFF738FB95E80F0001F01AF815
:100B600025B0BDE8F08F000070B5044600F0FEF837
:100B70000546601C02D004480078044400F0F6F8F2
:100B8000401BA042FAD370BD500000202DE9F84F61
:100B9000DFF8B8910024A9F1040B23460F2709F1CF
:100BA000040AABF1040EC9E00125A5402A40AA427F
:100BB0007DD1674ED1F804C0ACEB0608B44532D005
:100BC00014DCBCF1030F3AD009DCBCF1000F2AD0D1
:100BD000BCF1010F1CD0BCF1020F31D11DE0BCF102
:100BE000110F17D0BCF1120F2AD119E0B8F5881FE8
:100BF00019D006DCB8F5803F15D0B8F5801F1FD19D
:100C000011E0B8F5001F0ED0B8F5041F18D10AE0A6
:100C1000CB6815E0CB681B1D12E0CB6808330FE0F2
:100C2000CB680C330CE08B682BB1012B4FF0080321
:100C300003D0456104E0042302E0056100E00023E5
:100C4000FF2A01D8064601E000F104064FEA8405B8
:100C500001D9A5F12005D6F8008007FA05FC28EA9D
:100C60000C0803FA05F548EA0508C6F800804D6847
:100C7000ED0062D5374DAE6946F00106AE61AD6953
:100C800024F0030605F001050095334D06EB050C35
:100C9000DCF80850A607360F07FA06F825EA08051B
:100CA000DFF8B880404503D14FF0000817E044E07A
:100CB000DFF8AC80404502D14FF001080FE0DFF8CB
:100CC000A480404502D14FF0020808E0DFF8988088
:100CD000404502D14FF0030801E04FF0040808FA44
:100CE00006F848EA0508CCF808804D68D9F8006095
:100CF000ED024D4601D5164300E096432E604D6847
:100D0000DAF80060AD02554601D5164300E096437F
:100D10002E604D68DBF80060AD035D4601D51643DB
:100D200000E096432E604D68DEF80060ED037546E6
:100D300001D5164300E096432E60641C0D682A46D8
:100D4000E5407FF431AFBDE8F88F000008040140B2
:100D50000000111000100240000001400008014096
:100D6000000C01400010014000140140014880685F
:100D7000704700005000002002488168027811444A
:100D80008160704750000020074810B5016841F0AD
:100D900010010160032000F05FF80F2000F006F85A
:100DA00000F024F8002010BD0020024070B50D4D69
:100DB00004464FF47A712878B1FBF0F00A490968CB
:100DC000B1FBF0F000F0A6FA48B9102C07D20022CF
:100DD0002146501E00F020F800206C6070BD0120FC
:100DE00070BD0000500000205C000020094808B5DC
:100DF000816941F001018161816901F00101009186
:100E0000C16941F08051C161C06900F0805000901B
:100E100008BD000000100240F0B40E4B1B680C46E9
:100E2000C3F30223C3F10705042D00D90425191DBE
:100E3000072901D2002300E0DB1E012606FA05F196
:100E4000491E214099409E40761E16403143F0BC19
:100E500001F0F8B80CED00E0064900F00702086860
:100E60004FF6FF03184040EA0220034A104308608F
:100E7000704700000CED00E00000FA052DE9F04796
:100E80000F46050061D0434E306800F00700B842BD
:100E900009D2306820F0070038433060306800F035
:100EA0000700B84251D128683B4C810712D5400752
:100EB00003D5606840F4E06060602878000703D5DF
:100EC000606840F4605060606068A96820F0F000DD
:100ED000084360602878C00728D06868012810D0CF
:100EE0002168022810D0890700292EDA616821F0D4
:100EF000030101436160FFF739FF804641F2883901
:100F00000DE021688903EFE78901EDE7FFF72EFF88
:100F1000A0EB0801494502D90320BDE8F0876068CD
:100F2000696800F00C00B0EB810FEFD1306800F081
:100F30000700B8420BD9306820F007003843306012
:100F4000306800F00700B84201D00120E5E72878BA
:100F5000400705D56068E96820F4E06008436060F8
:100F60002878000706D56068296920F4605040EAB7
:100F7000C100606000F018F86168084AC1F303110D
:100F8000515CC8400649086006480068FFF70EFF3C
:100F90000020C2E700200240001002404E2100085D
:100FA0005C000020540000200E4A51680E4801F0F9
:100FB0000C03042B11D0082B0FD10C48C1F3834331
:100FC000C903C05C0AD55168084AC1F34041921E6A
:100FD000515C054A5043B0FBF1F070470449484367
:100FE000704700000010024000127A003E21000805
:100FF00000093D002DE9F84F040070D02078C04D65
:10100000C00749D06868C0F38100012807D068682C
:10101000C0F38100022809D16868C00306D528689A
:10102000800339D560680028E7D035E06068B0F506
:10103000803F0BD010B1B0F5A02F11D0286820F45C
:1010400080302860286820F4802002E0286840F47E
:1010500080302860606890B1FFF788FE06460AE09D
:10106000286840F480202860F0E700BFFFF77EFE8C
:10107000801B642873D828688003F7D50CE0FFF73D
:1010800075FE064605E000BFFFF770FE801B642872
:10109000F0D828688003F7D420789A4E80074FF064
:1010A00001094FF0000839D5686810F00C0F07D01F
:1010B0006868C0F38100022809D16868C00306D4BB
:1010C0002868800714D52069012808D110E020691C
:1010D000B0B1C6F80090FFF749FE074605E00AE107
:1010E000FFF744FEC01B0228C4D828688007F7D544
:1010F0002868616920F0F80040EAC10028600DE02E
:10110000C6F80080FFF732FE074604E0FFF72EFE28
:10111000C01B022823D828688007F7D4207800074E
:101120002CD57948A169D9B1C0F80090FFF71EFE0F
:10113000074604E0FFF71AFEC01B02280FD8686AB2
:101140008007F7D571484FF4FA510068B0FBF1F011
:10115000009000BF0098411E0091FAD20EE080E09E
:10116000C0F80080FFF702FE074604E0FFF7FEFD2F
:10117000C01B022875D8686A8007F7D4207840071A
:1011800060D5E8690027C00008D4E86940F08050C5
:10119000E861E869012700F0805000905C48016830
:1011A000C90513D40168834641F480710160FFF7DB
:1011B000DDFD824606E000BFFFF7D8FDA0EB0A0088
:1011C00064284ED8DBF80000C005F5D5E06801289A
:1011D0000AD008B1052813D0286A20F0010028623F
:1011E000286A20F0040002E0286A40F0010028622A
:1011F000E06841F2883B98B1FFF7B8FD82460BE00A
:10120000286A40F004002862EEE700BFFFF7AEFD59
:10121000A0EB0A0159455AD8286A8007F6D50CE098
:10122000FFF7A4FD824605E0FFF7A0FDA0EB0A0151
:1012300059454CD8286A8007F6D41FB1E86920F0D8
:101240008050E861E06988B36968C1F381010229CF
:1012500044D00228C6F8608004D0FFF787FD04461A
:1012600038E034E0FFF782FD074604E0FFF77EFD3B
:10127000C01B02282BD828688001F7D4206AB0F55B
:10128000803F05D16868A16820F400300843686099
:10129000D4E908010843696821F4741108436860BF
:1012A000C6F86090FFF762FD044606E025E000BF47
:1012B000FFF75CFD001B022809D828688001F7D5DC
:1012C0001BE000BFFFF752FD001B022802D90320DC
:1012D000BDE8F88F28688001F4D40EE00128F7D02B
:1012E0006868226A00F48031914204D1616A00F496
:1012F0007010884201D00120EAE70020E8E70000F2
:101300000010024000004242800442425C00002083
:101310000070004010B5401EB0F1807F01D3012065
:1013200010BD4FF0E02460610F21601700F08AFECD
:101330000020A06107202061002010BD10B590F8AA
:101340003C20012A22D0012280F83C20CA688C6807
:1013500022F4407222434C6822F4806222430C68DB
:1013600022F4006222430C6922F4805222434C6929
:1013700022F400522243C969002322F480420A4326
:1013800001684A6480F83C30002010BD022010BD86
:1013900070B590F83C20012A26D0012480F83C400A
:1013A000022280F83D2003685A689D6822F070068A
:1013B0000A6832435A600D4B02689A4208D0B2F173
:1013C000804F05D00A4B9A4202D00A4B9A4204D170
:1013D000496825F080031943916080F83D40002161
:1013E00080F83C10084670BD022070BD002C014002
:1013F000000400400008004010B5040003D094F839
:101400003D0010B107E0012010BD002084F83C0031
:10141000204600F01FF8022084F83D00211D2068BE
:1014200000F0F4FC012084F8460084F83E0084F8C3
:101430003F0084F8400084F8410084F8420084F8BA
:10144000430084F8440084F8450084F83D000020FF
:1014500010BD000008B5174A01681748914207D12E
:10146000816941F400618161806900F4006014E0E9
:10147000B1F1804F0AD0114A914210D1C16941F0B7
:101480000201C161C06900F0020006E0C16941F0DB
:101490000101C161C06900F00100009008BD084A67
:1014A0009142FBD1C16941F00401C161C06900F002
:1014B0000400F2E7002C014000100240000400404C
:1014C0000008004070B5044690F83C000025012853
:1014D00017D0012684F83C60022084F83D00206883
:1014E000826822F0770222F47F42826008685028E6
:1014F00038D00DDC20284FD005DC90B3102811D156
:101500004AE0022070BD302846D040280AD13BE096
:1015100060282FD070280DD0B0F5805F03D0B0F5D3
:10152000005F12D0012584F83D60002084F83C0063
:10153000284670BDCB68D1E90121206800F0A9FCE4
:101540002068816841F0770109E0CB68D1E9012189
:10155000206800F09EFC2068816841F48041816031
:10156000E1E719E0CA684968206800F047FD5021AA
:10157000206806E0CA684968206800F050FD6021D4
:10158000206800F090FCCEE7CA684968206800F047
:1015900035FD40212068F4E7226801461046F0E757
:1015A00030B585B00021009101910291039100684E
:1015B0002B4B2C4902242C4A98420AD1886940F0CE
:1015C00004008861886900F0040004904FF47060A2
:1015D00029E0B0F1804F1DD0244B254D98422BD1EE
:1015E000886940F004008861886900F00400049074
:1015F000886940F0080088618869694600F0080041
:101600000490C020CDE9000410460394FFF7BEFA11
:1016100003201EE0886940F004008861886900F0BA
:10162000040004900F20CDE900046946104603949D
:10163000FFF7ACFA05B030BD0E4A9042FAD1886986
:1016400040F008008861886900F0080004904FF4B9
:101650007070CDE90004694628460394E8E700006D
:10166000002C01400010024000080140000400402E
:10167000000C01400008004070B5044690F83C00A2
:1016800000260D4601280FD0012084F83C006AB1E5
:10169000042A1DD0082A2FD00C2A3FD00126002072
:1016A00084F83C00304670BD022070BD206800F018
:1016B00003FC2068816941F008018161206881692B
:1016C00021F004018161206881692A69114311E0D8
:1016D000206800F019FC2068816941F40061816193
:1016E0002068816921F480618161206881692A69AB
:1016F00041EA02218161D2E7206800F031FC2068D4
:10170000C16941F00801C1612068C16921F004018B
:10171000C1612068C1692A69114311E0206800F0A5
:101720004BFC2068C16941F40061C1612068C16956
:1017300021F48061C1612068C1692A6941EA0221FE
:10174000C161ACE710B5040003D094F83D0010B1BE
:1017500007E0012010BD002084F83C00204600F086
:101760001EF8022084F83D00211D206800F04EFB89
:10177000012084F8460084F83E0084F83F0084F895
:10178000400084F8410084F8420084F8430084F863
:10179000440084F8450084F83D00002010BD7047E7
:1017A00010B50446022249B104290ED0082913D0ED
:1017B00094F84100012816D0012010BD94F83E0095
:1017C0000128F9D184F83E200FE094F83F00012869
:1017D000F2D184F83F2008E094F840000128EBD1D2
:1017E00084F8402001E084F841200122206800F0C4
:1017F00043FB0F492068884203D1426C42F4004207
:1018000042642068884208D0B0F1804F05D0094971
:10181000884202D00849884204D1816801F007015A
:10182000062903D0016841F001010160002010BDCC
:10183000002C01400004004000080040FEE70000CA
:1018400010B596B000240F94109411941294139430
:101850001C2168461494FEF7E9FC202107A8FEF736
:10186000E5FC3448324901609F21C0E9011440F28F
:10187000E731C0E9031444618461FFF7BDFD08B19D
:1018800072B6FEE74FF480500F900FA92948FFF77A
:1018900019FE08B172B6FEE72648FFF753FF08B1FC
:1018A00072B6FEE7139413A922481494FFF770FD53
:1018B00008B172B6FEE76020CDE9000402940394FB
:1018C00004940594002269461A480694FFF7D4FE52
:1018D00008B172B6FEE7042269461648FFF7CCFE4F
:1018E00008B172B6FEE7082269461248FFF7C4FE47
:1018F00008B172B6FEE70C2269460E48FFF7BCFE3F
:1019000008B172B6FEE70794089409944FF40050AA
:101910000A94CDE90B4007A906480E94FFF70EFD87
:1019200008B172B6FEE70348FFF73AFE16B010BDE5
:10193000002C01406000002010B58EB000240794F8
:10194000089409940A940B941C2168460C94FEF7A1
:101950006DFC2A484FF0804101609F21C0E90114CD
:1019600040F2E731C0E903148461FFF745FD08B197
:1019700072B6FEE74FF48050079007A91F48FFF7A3
:10198000A1FD08B172B6FEE71C48FFF7DBFE08B107
:1019900072B6FEE70B940BA918480C94FFF7F8FCFD
:1019A00008B172B6FEE76020CDE90004029400227F
:1019B000694612480494FFF75FFE08B172B6FEE76D
:1019C000042269460D48FFF757FE08B172B6FEE7DC
:1019D000082269460948FFF74FFE08B172B6FEE7D4
:1019E0000C2269460548FFF747FE08B172B6FEE7CC
:1019F0000248FFF7D5FD0EB010BD0000A800002082
:101A000010B58EB000240794089409940A940B949E
:101A10001C2168460C94FEF709FC2A4828490160FD
:101A20009F21C0E9011440F2E731C0E90314846149
:101A3000FFF7E2FC08B172B6FEE74FF48050079062
:101A400007A92048FFF73EFD08B172B6FEE71D4822
:101A5000FFF778FE08B172B6FEE70B940BA91948A0
:101A60000C94FFF795FC08B172B6FEE76020CDE953
:101A7000000402940022694612480494FFF7FCFD1A
:101A800008B172B6FEE7042269460E48FFF7F4FD7E
:101A900008B172B6FEE7082269460A48FFF7ECFD76
:101AA00008B172B6FEE70C2269460648FFF7E4FD6E
:101AB00008B172B6FEE70348FFF772FD0EB010BD25
:101AC00000040040F000002010B58EB00024079400
:101AD000089409940A940B941C2168460C94FEF710
:101AE000A5FB2A48284901609F21C0E9011440F262
:101AF000E731C0E903148461FFF77EFC08B172B6D8
:101B0000FEE74FF48050079007A92048FFF7DAFC62
:101B100008B172B6FEE71D48FFF714FE08B172B6B1
:101B2000FEE70B940BA919480C94FFF731FC08B1A0
:101B300072B6FEE76020CDE90004029400226946F7
:101B400012480494FFF798FD08B172B6FEE704222C
:101B500069460E48FFF790FD08B172B6FEE708220D
:101B600069460A48FFF788FD08B172B6FEE70C2205
:101B700069460648FFF780FD08B172B6FEE70348E4
:101B8000FFF70EFD0EB010BD000800403801002028
:101B9000FEE700000FB42DE9F0411B99189F01EBFF
:101BA00081023449DDE9190501EB820656F8274028
:101BB000AC422CDC01280CD0022813D003281AD008
:101BC000042850D120E0069844631420FEF7CCFF8F
:101BD000641CAC42F7DD46E0069884631420FEF7EF
:101BE000C3FF641CAC42F7DD3DE00698C4631420DB
:101BF000FEF7BAFF641CAC42F7DD34E006980464DB
:101C00001420FEF7B1FF641CAC42F7DD2BE0012885
:101C10000CD0022813D003281AD0042823D120E0A6
:101C2000069844631420FEF79FFF641EAC42F7DA67
:101C300019E0069884631420FEF796FF641EAC42F8
:101C4000F7DA10E00698C4631420FEF78DFF641ED7
:101C5000AC42F7DA07E0069804641420FEF784FF2C
:101C6000641EAC42F7DA46F82750BDE8F0015DF893
:101C700014FB0000000000202DE9F05F1E4617460F
:101C8000894682460A9CFEF736FB054633463A46AD
:101C900049465046FEF739FBDFF8D4808346A8F169
:101CA0009000012C06D0022C25D0032C21D17D24BC
:101CB00005465AE03224834619E0A74203DB2C484C
:101CC000483800684463A24503DB2948D8380068D7
:101CD000C463A64202DBD8F800004463A14502DBDE
:101CE000DBF8000004641420FEF73EFF641CAC42E5
:101CF000E3DDBDE8F09FC3464624804619E0A742D5
:101D000003DB1B48483800688463A24503DB18489E
:101D1000D83800688463A64202DBDBF800008463E5
:101D2000A14502DBD8F80000C4631420FEF71CFFB5
:101D3000641CAC42E3DDDCE7A74203DC0C48483816
:101D40000068C463A24503DC0948D83800684463CE
:101D5000A64202DCD8F80000C463A14501DC286873
:101D600084631420FEF700FF641E5C45E4DAC0E7DC
:101D700038010020FEE77047704708B54FF47A70CD
:101D8000FEF7F2FE012000904D234E224F214B2002
:101D9000FFF772FF022000907623782272217D20C7
:101DA000FFF76AFF03205923009060225A2118464A
:101DB000FFF762FF08BDFEF7DFBF10B590B0282126
:101DC0006846FEF733FA14210AA8FEF72FFA02201C
:101DD000009001200490102000240590079468468C
:101DE000FFF708F908B172B6FEE70F20CDE90A0443
:101DF0000C940D9400210AA80E94FFF73FF80028D8
:101E000001D072B6FEE710B010BD7047F0B50268A1
:101E1000164B174C174D4FF08047984205D0B842EB
:101E200003D0A04201D0A84203D122F070064A6834
:101E30003243984205D0B84203D0A04201D0A84214
:101E400003D122F44074CA6822434C6922F0800214
:101E5000224302608A68C2620A688262984201D1A3
:101E60000969016301214161F0BD0000002C0140BE
:101E7000000400400008004010B501F01F030121DC
:101E8000046A99408C430462016A9A4011430162DA
:101E900010BD10B5846842EA032224F47F440A434B
:101EA0002243826010BD826822F070020A4342F031
:101EB000070181607047000030B5036A026A22F0B2
:101EC000010202624268846924F073050C682C43A5
:101ED00023F002058B682B430A4DA8420BD123F057
:101EE0000805CB6822F440722B434D6923F00403AC
:101EF00015438A692A4342608461496841630362E9
:101F000030BD0000002C014030B5026A036A23F0A6
:101F100010030362436884690D6824F4E64444EACC
:101F200005248D6822F0200242EA05120B4DA842DA
:101F30000ED1CD6822F0800242EA05124D6923F4E9
:101F4000406343EA85038D6922F0400243EA85033A
:101F50004360846149688163026230BD002C0140A6
:101F600030B5036A026A22F4807202624268C46970
:101F700023F4007324F073050C682C438D6843EA46
:101F800005230C4DA8420ED1CD6823F4006343EA2B
:101F900005234D6922F4405242EA05128D6923F46B
:101FA000806342EA05124260C4614968C16303620A
:101FB00030BD0000002C014030B5046A026A22F4F2
:101FC000805202624268C3690D6823F4E64343EA23
:101FD00005238D6824F4005444EA0534064DA842D4
:101FE00004D14D6922F4804242EA85124260C36105
:101FF00049680164046230BD002C014010B5036AD9
:10200000046A24F001040462846924F0F00444EAC0
:10201000021423F00A020A438461026210BD10B563
:10202000036A046A24F010040462846923F0A003A4
:1020300024F4704444EA023243EA011182610162ED
:1020400010BDFEE70907090E002804DB00F1E020BF
:1020500080F80014704700F00F0000F1E02080F8D5
:10206000141D704738B5FEF78FFEFFF7A6FE314806
:10207000816941F004018161816901F004010091ED
:10208000816941F008018161806900F008000090D9
:10209000FFF7D6FBFFF750FCFFF7B2FCFFF714FD8C
:1020A00000212548FFF77CFB04212348FFF778FB3C
:1020B00008212148FFF774FB1F4804214830FFF72F
:1020C0006FFB1D4808214830FFF76AFB1A480C21B6
:1020D0004830FFF765FB184800219030FFF760FBA0
:1020E000154804219030FFF75BFB1348082190301E
:1020F000FFF756FB10480021D830FFF751FB0E4880
:102100000421D830FFF74CFB0B480821D830FFF7EB
:1021100047FBFFF732FE4FF4FA642046FEF724FD3A
:10212000FEF7FEF82046FEF71FFDFEF7F9F8002047
:1021300038BD0000001002406000002001020203D0
:102140000405060708090A0B0C0D0E0F10100000FD
:102150000000000000000102030406070809000057
:102160008021000800000020600000002801000815
:10217000E021000860000020800700004401000802
:10218000000000000000000000000000000000004F
:1021900000000000000000004B0000003F000000B5
:1021A0004B0000004B000000000000007300000026
:1021B0006E0000006E0000006900000000000000DA
:1021C0004B0000004B0000004B00000050000000DE
:1021D0000100000010000000000000000024F400D6
:04000005080000ED02
:00000001FF
